{
  "_format": "hh-sol-artifact-1",
  "contractName": "TokenICO",
  "sourceName": "contracts/TokenICO.sol",
  "abi": [
    {
      "inputs": [
        {
          "internalType": "uint256",
          "name": "_startDate",
          "type": "uint256"
        },
        {
          "internalType": "string",
          "name": "_name",
          "type": "string"
        },
        {
          "internalType": "string",
          "name": "_symbol",
          "type": "string"
        }
      ],
      "stateMutability": "nonpayable",
      "type": "constructor"
    },
    {
      "anonymous": false,
      "inputs": [
        {
          "indexed": true,
          "internalType": "address",
          "name": "owner",
          "type": "address"
        },
        {
          "indexed": true,
          "internalType": "address",
          "name": "spender",
          "type": "address"
        },
        {
          "indexed": false,
          "internalType": "uint256",
          "name": "value",
          "type": "uint256"
        }
      ],
      "name": "Approval",
      "type": "event"
    },
    {
      "anonymous": false,
      "inputs": [
        {
          "indexed": true,
          "internalType": "address",
          "name": "investor",
          "type": "address"
        },
        {
          "indexed": false,
          "internalType": "uint256",
          "name": "amount",
          "type": "uint256"
        },
        {
          "indexed": false,
          "internalType": "uint256",
          "name": "tokens",
          "type": "uint256"
        }
      ],
      "name": "Invest",
      "type": "event"
    },
    {
      "anonymous": false,
      "inputs": [
        {
          "indexed": true,
          "internalType": "address",
          "name": "from",
          "type": "address"
        },
        {
          "indexed": true,
          "internalType": "address",
          "name": "to",
          "type": "address"
        },
        {
          "indexed": false,
          "internalType": "uint256",
          "name": "value",
          "type": "uint256"
        }
      ],
      "name": "Transfer",
      "type": "event"
    },
    {
      "stateMutability": "payable",
      "type": "fallback"
    },
    {
      "inputs": [],
      "name": "admin",
      "outputs": [
        {
          "internalType": "address",
          "name": "",
          "type": "address"
        }
      ],
      "stateMutability": "view",
      "type": "function"
    },
    {
      "inputs": [
        {
          "internalType": "address",
          "name": "owner",
          "type": "address"
        },
        {
          "internalType": "address",
          "name": "spender",
          "type": "address"
        }
      ],
      "name": "allowance",
      "outputs": [
        {
          "internalType": "uint256",
          "name": "",
          "type": "uint256"
        }
      ],
      "stateMutability": "view",
      "type": "function"
    },
    {
      "inputs": [
        {
          "internalType": "address",
          "name": "spender",
          "type": "address"
        },
        {
          "internalType": "uint256",
          "name": "amount",
          "type": "uint256"
        }
      ],
      "name": "approve",
      "outputs": [
        {
          "internalType": "bool",
          "name": "",
          "type": "bool"
        }
      ],
      "stateMutability": "nonpayable",
      "type": "function"
    },
    {
      "inputs": [
        {
          "internalType": "address",
          "name": "account",
          "type": "address"
        }
      ],
      "name": "balanceOf",
      "outputs": [
        {
          "internalType": "uint256",
          "name": "",
          "type": "uint256"
        }
      ],
      "stateMutability": "view",
      "type": "function"
    },
    {
      "inputs": [],
      "name": "decimals",
      "outputs": [
        {
          "internalType": "uint8",
          "name": "",
          "type": "uint8"
        }
      ],
      "stateMutability": "view",
      "type": "function"
    },
    {
      "inputs": [
        {
          "internalType": "address",
          "name": "spender",
          "type": "address"
        },
        {
          "internalType": "uint256",
          "name": "subtractedValue",
          "type": "uint256"
        }
      ],
      "name": "decreaseAllowance",
      "outputs": [
        {
          "internalType": "bool",
          "name": "",
          "type": "bool"
        }
      ],
      "stateMutability": "nonpayable",
      "type": "function"
    },
    {
      "inputs": [
        {
          "internalType": "address",
          "name": "",
          "type": "address"
        }
      ],
      "name": "deposits",
      "outputs": [
        {
          "internalType": "uint256",
          "name": "",
          "type": "uint256"
        }
      ],
      "stateMutability": "view",
      "type": "function"
    },
    {
      "inputs": [],
      "name": "endDate",
      "outputs": [
        {
          "internalType": "uint256",
          "name": "",
          "type": "uint256"
        }
      ],
      "stateMutability": "view",
      "type": "function"
    },
    {
      "inputs": [],
      "name": "founder",
      "outputs": [
        {
          "internalType": "address",
          "name": "",
          "type": "address"
        }
      ],
      "stateMutability": "view",
      "type": "function"
    },
    {
      "inputs": [],
      "name": "getCurrentState",
      "outputs": [
        {
          "internalType": "enum TokenICO.State",
          "name": "",
          "type": "uint8"
        }
      ],
      "stateMutability": "view",
      "type": "function"
    },
    {
      "inputs": [],
      "name": "halt",
      "outputs": [],
      "stateMutability": "nonpayable",
      "type": "function"
    },
    {
      "inputs": [],
      "name": "hardCap",
      "outputs": [
        {
          "internalType": "uint256",
          "name": "",
          "type": "uint256"
        }
      ],
      "stateMutability": "view",
      "type": "function"
    },
    {
      "inputs": [],
      "name": "icoState",
      "outputs": [
        {
          "internalType": "enum TokenICO.State",
          "name": "",
          "type": "uint8"
        }
      ],
      "stateMutability": "view",
      "type": "function"
    },
    {
      "inputs": [
        {
          "internalType": "address",
          "name": "spender",
          "type": "address"
        },
        {
          "internalType": "uint256",
          "name": "addedValue",
          "type": "uint256"
        }
      ],
      "name": "increaseAllowance",
      "outputs": [
        {
          "internalType": "bool",
          "name": "",
          "type": "bool"
        }
      ],
      "stateMutability": "nonpayable",
      "type": "function"
    },
    {
      "inputs": [],
      "name": "invest",
      "outputs": [
        {
          "internalType": "bool",
          "name": "",
          "type": "bool"
        }
      ],
      "stateMutability": "payable",
      "type": "function"
    },
    {
      "inputs": [],
      "name": "maxInvestment",
      "outputs": [
        {
          "internalType": "uint256",
          "name": "",
          "type": "uint256"
        }
      ],
      "stateMutability": "view",
      "type": "function"
    },
    {
      "inputs": [],
      "name": "minInvestment",
      "outputs": [
        {
          "internalType": "uint256",
          "name": "",
          "type": "uint256"
        }
      ],
      "stateMutability": "view",
      "type": "function"
    },
    {
      "inputs": [],
      "name": "name",
      "outputs": [
        {
          "internalType": "string",
          "name": "",
          "type": "string"
        }
      ],
      "stateMutability": "view",
      "type": "function"
    },
    {
      "inputs": [],
      "name": "raisedAmount",
      "outputs": [
        {
          "internalType": "uint256",
          "name": "",
          "type": "uint256"
        }
      ],
      "stateMutability": "view",
      "type": "function"
    },
    {
      "inputs": [],
      "name": "refund",
      "outputs": [
        {
          "internalType": "bool",
          "name": "",
          "type": "bool"
        }
      ],
      "stateMutability": "nonpayable",
      "type": "function"
    },
    {
      "inputs": [],
      "name": "resume",
      "outputs": [],
      "stateMutability": "nonpayable",
      "type": "function"
    },
    {
      "inputs": [],
      "name": "softCap",
      "outputs": [
        {
          "internalType": "uint256",
          "name": "",
          "type": "uint256"
        }
      ],
      "stateMutability": "view",
      "type": "function"
    },
    {
      "inputs": [],
      "name": "startDate",
      "outputs": [
        {
          "internalType": "uint256",
          "name": "",
          "type": "uint256"
        }
      ],
      "stateMutability": "view",
      "type": "function"
    },
    {
      "inputs": [],
      "name": "startTradingDate",
      "outputs": [
        {
          "internalType": "uint256",
          "name": "",
          "type": "uint256"
        }
      ],
      "stateMutability": "view",
      "type": "function"
    },
    {
      "inputs": [],
      "name": "symbol",
      "outputs": [
        {
          "internalType": "string",
          "name": "",
          "type": "string"
        }
      ],
      "stateMutability": "view",
      "type": "function"
    },
    {
      "inputs": [],
      "name": "tokenPrice",
      "outputs": [
        {
          "internalType": "uint256",
          "name": "",
          "type": "uint256"
        }
      ],
      "stateMutability": "view",
      "type": "function"
    },
    {
      "inputs": [],
      "name": "totalSupply",
      "outputs": [
        {
          "internalType": "uint256",
          "name": "",
          "type": "uint256"
        }
      ],
      "stateMutability": "view",
      "type": "function"
    },
    {
      "inputs": [
        {
          "internalType": "address",
          "name": "to",
          "type": "address"
        },
        {
          "internalType": "uint256",
          "name": "tokens",
          "type": "uint256"
        }
      ],
      "name": "transfer",
      "outputs": [
        {
          "internalType": "bool",
          "name": "success",
          "type": "bool"
        }
      ],
      "stateMutability": "nonpayable",
      "type": "function"
    },
    {
      "inputs": [
        {
          "internalType": "address",
          "name": "from",
          "type": "address"
        },
        {
          "internalType": "address",
          "name": "to",
          "type": "address"
        },
        {
          "internalType": "uint256",
          "name": "tokens",
          "type": "uint256"
        }
      ],
      "name": "transferFrom",
      "outputs": [
        {
          "internalType": "bool",
          "name": "success",
          "type": "bool"
        }
      ],
      "stateMutability": "nonpayable",
      "type": "function"
    },
    {
      "stateMutability": "payable",
      "type": "receive"
    }
  ],
  "bytecode": "0x60806040523480156200001157600080fd5b5060405162002c6938038062002c6983398181016040528101906200003791906200045c565b8181818181600390805190602001906200005392919062000323565b5080600490805190602001906200006c92919062000323565b50505033600560006101000a81548173ffffffffffffffffffffffffffffffffffffffff021916908373ffffffffffffffffffffffffffffffffffffffff16021790555050506001600681905550826008819055506028600854620000d29190620005cb565b600981905550603c600954620000e99190620005cb565b600a819055506000600d60006101000a81548160ff021916908360038111156200013c577f4e487b7100000000000000000000000000000000000000000000000000000000600052602160045260246000fd5b021790555033600760006101000a81548173ffffffffffffffffffffffffffffffffffffffff021916908373ffffffffffffffffffffffffffffffffffffffff1602179055506200019730620186a0620001a060201b60201c565b505050620007b5565b600073ffffffffffffffffffffffffffffffffffffffff168273ffffffffffffffffffffffffffffffffffffffff16141562000213576040517f08c379a00000000000000000000000000000000000000000000000000000000081526004016200020a906200051c565b60405180910390fd5b62000227600083836200031960201b60201c565b80600260008282546200023b9190620005cb565b92505081905550806000808473ffffffffffffffffffffffffffffffffffffffff1673ffffffffffffffffffffffffffffffffffffffff1681526020019081526020016000206000828254620002929190620005cb565b925050819055508173ffffffffffffffffffffffffffffffffffffffff16600073ffffffffffffffffffffffffffffffffffffffff167fddf252ad1be2c89b69c2b068fc378daa952ba7f163c4a11628f55a4df523b3ef83604051620002f991906200053e565b60405180910390a362000315600083836200031e60201b60201c565b5050565b505050565b505050565b828054620003319062000668565b90600052602060002090601f016020900481019282620003555760008555620003a1565b82601f106200037057805160ff1916838001178555620003a1565b82800160010185558215620003a1579182015b82811115620003a057825182559160200191906001019062000383565b5b509050620003b09190620003b4565b5090565b5b80821115620003cf576000816000905550600101620003b5565b5090565b6000620003ea620003e48462000584565b6200055b565b9050828152602081018484840111156200040357600080fd5b6200041084828562000632565b509392505050565b600082601f8301126200042a57600080fd5b81516200043c848260208601620003d3565b91505092915050565b60008151905062000456816200079b565b92915050565b6000806000606084860312156200047257600080fd5b6000620004828682870162000445565b935050602084015167ffffffffffffffff811115620004a057600080fd5b620004ae8682870162000418565b925050604084015167ffffffffffffffff811115620004cc57600080fd5b620004da8682870162000418565b9150509250925092565b6000620004f3601f83620005ba565b9150620005008262000772565b602082019050919050565b620005168162000628565b82525050565b600060208201905081810360008301526200053781620004e4565b9050919050565b60006020820190506200055560008301846200050b565b92915050565b6000620005676200057a565b90506200057582826200069e565b919050565b6000604051905090565b600067ffffffffffffffff821115620005a257620005a162000732565b5b620005ad8262000761565b9050602081019050919050565b600082825260208201905092915050565b6000620005d88262000628565b9150620005e58362000628565b9250827fffffffffffffffffffffffffffffffffffffffffffffffffffffffffffffffff038211156200061d576200061c620006d4565b5b828201905092915050565b6000819050919050565b60005b838110156200065257808201518184015260208101905062000635565b8381111562000662576000848401525b50505050565b600060028204905060018216806200068157607f821691505b6020821081141562000698576200069762000703565b5b50919050565b620006a98262000761565b810181811067ffffffffffffffff82111715620006cb57620006ca62000732565b5b80604052505050565b7f4e487b7100000000000000000000000000000000000000000000000000000000600052601160045260246000fd5b7f4e487b7100000000000000000000000000000000000000000000000000000000600052602260045260246000fd5b7f4e487b7100000000000000000000000000000000000000000000000000000000600052604160045260246000fd5b6000601f19601f8301169050919050565b7f45524332303a206d696e7420746f20746865207a65726f206164647265737300600082015250565b620007a68162000628565b8114620007b257600080fd5b50565b6124a480620007c56000396000f3fe6080604052600436106101c55760003560e01c80635ed7ca5b116100f7578063a9059cbb11610095578063e8b5e51f11610064578063e8b5e51f14610660578063f851a4401461067e578063fb86a404146106a9578063fc7e286d146106d4576101d5565b8063a9059cbb14610590578063c24a0f8b146105cd578063c59ee1dc146105f8578063dd62ed3e14610623576101d5565b80638ac2c680116100d15780638ac2c680146104d2578063906a26e0146104fd57806395d89b4114610528578063a457c2d714610553576101d5565b80635ed7ca5b1461045357806370a082311461046a5780637ff9b596146104a7576101d5565b80632ee797c211610164578063395093511161013e578063395093511461039557806344f38756146103d25780634d853ee5146103fd578063590e1ae314610428576101d5565b80632ee797c214610314578063313ce5671461033f578063378aa7011461036a576101d5565b8063095ea7b3116101a0578063095ea7b3146102445780630b97bc861461028157806318160ddd146102ac57806323b872dd146102d7576101d5565b80622e1316146101d7578063046f7da21461020257806306fdde0314610219576101d5565b366101d5576101d2610711565b50005b005b3480156101e357600080fd5b506101ec610a8b565b6040516101f99190611e36565b60405180910390f35b34801561020e57600080fd5b50610217610a97565b005b34801561022557600080fd5b5061022e610b44565b60405161023b9190611c54565b60405180910390f35b34801561025057600080fd5b5061026b60048036038101906102669190611959565b610bd6565b6040516102789190611c1e565b60405180910390f35b34801561028d57600080fd5b50610296610bf9565b6040516102a39190611e36565b60405180910390f35b3480156102b857600080fd5b506102c1610bff565b6040516102ce9190611e36565b60405180910390f35b3480156102e357600080fd5b506102fe60048036038101906102f9919061190a565b610c09565b60405161030b9190611c1e565b60405180910390f35b34801561032057600080fd5b50610329610c30565b6040516103369190611e36565b60405180910390f35b34801561034b57600080fd5b50610354610c36565b6040516103619190611e7a565b60405180910390f35b34801561037657600080fd5b5061037f610c3f565b60405161038c9190611c39565b60405180910390f35b3480156103a157600080fd5b506103bc60048036038101906103b79190611959565b610d0c565b6040516103c99190611c1e565b60405180910390f35b3480156103de57600080fd5b506103e7610d43565b6040516103f49190611c39565b60405180910390f35b34801561040957600080fd5b50610412610d56565b60405161041f9190611c03565b60405180910390f35b34801561043457600080fd5b5061043d610d7c565b60405161044a9190611c1e565b60405180910390f35b34801561045f57600080fd5b5061046861101d565b005b34801561047657600080fd5b50610491600480360381019061048c91906118a5565b6110ca565b60405161049e9190611e36565b60405180910390f35b3480156104b357600080fd5b506104bc611112565b6040516104c99190611e36565b60405180910390f35b3480156104de57600080fd5b506104e761111d565b6040516104f49190611e36565b60405180910390f35b34801561050957600080fd5b50610512611128565b60405161051f9190611e36565b60405180910390f35b34801561053457600080fd5b5061053d611134565b60405161054a9190611c54565b60405180910390f35b34801561055f57600080fd5b5061057a60048036038101906105759190611959565b6111c6565b6040516105879190611c1e565b60405180910390f35b34801561059c57600080fd5b506105b760048036038101906105b29190611959565b61123d565b6040516105c49190611c1e565b60405180910390f35b3480156105d957600080fd5b506105e2611262565b6040516105ef9190611e36565b60405180910390f35b34801561060457600080fd5b5061060d611268565b60405161061a9190611e36565b60405180910390f35b34801561062f57600080fd5b5061064a600480360381019061064591906118ce565b61126e565b6040516106579190611e36565b60405180910390f35b610668610711565b6040516106759190611c1e565b60405180910390f35b34801561068a57600080fd5b506106936112f5565b6040516106a09190611c03565b60405180910390f35b3480156106b557600080fd5b506106be61131b565b6040516106cb9190611e36565b60405180910390f35b3480156106e057600080fd5b506106fb60048036038101906106f691906118a5565b611327565b6040516107089190611e36565b60405180910390f35b600060026006541415610759576040517f08c379a000000000000000000000000000000000000000000000000000000000815260040161075090611df6565b60405180910390fd5b6002600681905550610769610c3f565b600d60006101000a81548160ff021916908360038111156107b3577f4e487b7100000000000000000000000000000000000000000000000000000000600052602160045260246000fd5b0217905550600160038111156107f2577f4e487b7100000000000000000000000000000000000000000000000000000000600052602160045260246000fd5b600d60009054906101000a900460ff16600381111561083a577f4e487b7100000000000000000000000000000000000000000000000000000000600052602160045260246000fd5b1461087a576040517f08c379a000000000000000000000000000000000000000000000000000000000815260040161087190611d56565b60405180910390fd5b662386f26fc1000034116108c3576040517f08c379a00000000000000000000000000000000000000000000000000000000081526004016108ba90611c76565b60405180910390fd5b34600b60003373ffffffffffffffffffffffffffffffffffffffff1673ffffffffffffffffffffffffffffffffffffffff16815260200190815260200160002060008282546109129190611eb1565b92505081905550674563918244f40000600b60003373ffffffffffffffffffffffffffffffffffffffff1673ffffffffffffffffffffffffffffffffffffffff1681526020019081526020016000205411156109a3576040517f08c379a000000000000000000000000000000000000000000000000000000000815260040161099a90611dd6565b60405180910390fd5b34600c60008282546109b59190611eb1565b92505081905550678ac7230489e80000600c541115610a09576040517f08c379a0000000000000000000000000000000000000000000000000000000008152600401610a0090611cb6565b60405180910390fd5b600066038d7ea4c6800034610a1e9190611f07565b9050610a2b30338361133f565b3373ffffffffffffffffffffffffffffffffffffffff167f4ae4bd7655e0d350876a23cd90c4227b13db560e34435c6a488150a9c844bf5f3483604051610a73929190611e51565b60405180910390a26001915050600160068190555090565b674563918244f4000081565b600760009054906101000a900473ffffffffffffffffffffffffffffffffffffffff1673ffffffffffffffffffffffffffffffffffffffff163373ffffffffffffffffffffffffffffffffffffffff1614610af157600080fd5b6001600d60006101000a81548160ff02191690836003811115610b3d577f4e487b7100000000000000000000000000000000000000000000000000000000600052602160045260246000fd5b0217905550565b606060038054610b5390611fe5565b80601f0160208091040260200160405190810160405280929190818152602001828054610b7f90611fe5565b8015610bcc5780601f10610ba157610100808354040283529160200191610bcc565b820191906000526020600020905b815481529060010190602001808311610baf57829003601f168201915b5050505050905090565b600080610be16115c0565b9050610bee8185856115c8565b600191505092915050565b60085481565b6000600254905090565b6000600a544311610c1957600080fd5b610c24848484611793565b50600190509392505050565b600a5481565b60006012905090565b6000600380811115610c7a577f4e487b7100000000000000000000000000000000000000000000000000000000600052602160045260246000fd5b600d60009054906101000a900460ff166003811115610cc2577f4e487b7100000000000000000000000000000000000000000000000000000000600052602160045260246000fd5b1415610cd15760039050610d09565b600854431015610ce45760009050610d09565b60085443118015610cf6575060095443105b15610d045760019050610d09565b600290505b90565b600080610d176115c0565b9050610d38818585610d29858961126e565b610d339190611eb1565b6115c8565b600191505092915050565b600d60009054906101000a900460ff1681565b600560009054906101000a900473ffffffffffffffffffffffffffffffffffffffff1681565b600060026006541415610dc4576040517f08c379a0000000000000000000000000000000000000000000000000000000008152600401610dbb90611df6565b60405180910390fd5b60026006819055506000600b60003373ffffffffffffffffffffffffffffffffffffffff1673ffffffffffffffffffffffffffffffffffffffff168152602001908152602001600020549050610e18610c3f565b600d60006101000a81548160ff02191690836003811115610e62577f4e487b7100000000000000000000000000000000000000000000000000000000600052602160045260246000fd5b021790555060008111610eaa576040517f08c379a0000000000000000000000000000000000000000000000000000000008152600401610ea190611d36565b60405180910390fd5b60026003811115610ee4577f4e487b7100000000000000000000000000000000000000000000000000000000600052602160045260246000fd5b600d60009054906101000a900460ff166003811115610f2c577f4e487b7100000000000000000000000000000000000000000000000000000000600052602160045260246000fd5b148015610f425750674563918244f40000600c54105b610f81576040517f08c379a0000000000000000000000000000000000000000000000000000000008152600401610f7890611db6565b60405180910390fd5b6000600b60003373ffffffffffffffffffffffffffffffffffffffff1673ffffffffffffffffffffffffffffffffffffffff168152602001908152602001600020819055503373ffffffffffffffffffffffffffffffffffffffff166108fc829081150290604051600060405180830381858888f1935050505015801561100c573d6000803e3d6000fd5b506001915050600160068190555090565b600760009054906101000a900473ffffffffffffffffffffffffffffffffffffffff1673ffffffffffffffffffffffffffffffffffffffff163373ffffffffffffffffffffffffffffffffffffffff161461107757600080fd5b6003600d60006101000a81548160ff021916908360038111156110c3577f4e487b7100000000000000000000000000000000000000000000000000000000600052602160045260246000fd5b0217905550565b60008060008373ffffffffffffffffffffffffffffffffffffffff1673ffffffffffffffffffffffffffffffffffffffff168152602001908152602001600020549050919050565b66038d7ea4c6800081565b662386f26fc1000081565b674563918244f4000081565b60606004805461114390611fe5565b80601f016020809104026020016040519081016040528092919081815260200182805461116f90611fe5565b80156111bc5780601f10611191576101008083540402835291602001916111bc565b820191906000526020600020905b81548152906001019060200180831161119f57829003601f168201915b5050505050905090565b6000806111d16115c0565b905060006111df828661126e565b905083811015611224576040517f08c379a000000000000000000000000000000000000000000000000000000000815260040161121b90611e16565b60405180910390fd5b61123182868684036115c8565b60019250505092915050565b6000600a54431161124d57600080fd5b61125783836117c2565b506001905092915050565b60095481565b600c5481565b6000600160008473ffffffffffffffffffffffffffffffffffffffff1673ffffffffffffffffffffffffffffffffffffffff16815260200190815260200160002060008373ffffffffffffffffffffffffffffffffffffffff1673ffffffffffffffffffffffffffffffffffffffff16815260200190815260200160002054905092915050565b600760009054906101000a900473ffffffffffffffffffffffffffffffffffffffff1681565b678ac7230489e8000081565b600b6020528060005260406000206000915090505481565b600073ffffffffffffffffffffffffffffffffffffffff168373ffffffffffffffffffffffffffffffffffffffff1614156113af576040517f08c379a00000000000000000000000000000000000000000000000000000000081526004016113a690611d76565b60405180910390fd5b600073ffffffffffffffffffffffffffffffffffffffff168273ffffffffffffffffffffffffffffffffffffffff16141561141f576040517f08c379a000000000000000000000000000000000000000000000000000000000815260040161141690611c96565b60405180910390fd5b61142a8383836117e5565b60008060008573ffffffffffffffffffffffffffffffffffffffff1673ffffffffffffffffffffffffffffffffffffffff168152602001908152602001600020549050818110156114b0576040517f08c379a00000000000000000000000000000000000000000000000000000000081526004016114a790611d16565b60405180910390fd5b8181036000808673ffffffffffffffffffffffffffffffffffffffff1673ffffffffffffffffffffffffffffffffffffffff16815260200190815260200160002081905550816000808573ffffffffffffffffffffffffffffffffffffffff1673ffffffffffffffffffffffffffffffffffffffff16815260200190815260200160002060008282546115439190611eb1565b925050819055508273ffffffffffffffffffffffffffffffffffffffff168473ffffffffffffffffffffffffffffffffffffffff167fddf252ad1be2c89b69c2b068fc378daa952ba7f163c4a11628f55a4df523b3ef846040516115a79190611e36565b60405180910390a36115ba8484846117ea565b50505050565b600033905090565b600073ffffffffffffffffffffffffffffffffffffffff168373ffffffffffffffffffffffffffffffffffffffff161415611638576040517f08c379a000000000000000000000000000000000000000000000000000000000815260040161162f90611d96565b60405180910390fd5b600073ffffffffffffffffffffffffffffffffffffffff168273ffffffffffffffffffffffffffffffffffffffff1614156116a8576040517f08c379a000000000000000000000000000000000000000000000000000000000815260040161169f90611cd6565b60405180910390fd5b80600160008573ffffffffffffffffffffffffffffffffffffffff1673ffffffffffffffffffffffffffffffffffffffff16815260200190815260200160002060008473ffffffffffffffffffffffffffffffffffffffff1673ffffffffffffffffffffffffffffffffffffffff168152602001908152602001600020819055508173ffffffffffffffffffffffffffffffffffffffff168373ffffffffffffffffffffffffffffffffffffffff167f8c5be1e5ebec7d5bd14f71427d1e84f3dd0314c0f7b2291e5b200ac8c7c3b925836040516117869190611e36565b60405180910390a3505050565b60008061179e6115c0565b90506117ab8582856117ef565b6117b685858561133f565b60019150509392505050565b6000806117cd6115c0565b90506117da81858561133f565b600191505092915050565b505050565b505050565b60006117fb848461126e565b90507fffffffffffffffffffffffffffffffffffffffffffffffffffffffffffffffff81146118755781811015611867576040517f08c379a000000000000000000000000000000000000000000000000000000000815260040161185e90611cf6565b60405180910390fd5b61187484848484036115c8565b5b50505050565b60008135905061188a81612440565b92915050565b60008135905061189f81612457565b92915050565b6000602082840312156118b757600080fd5b60006118c58482850161187b565b91505092915050565b600080604083850312156118e157600080fd5b60006118ef8582860161187b565b92505060206119008582860161187b565b9150509250929050565b60008060006060848603121561191f57600080fd5b600061192d8682870161187b565b935050602061193e8682870161187b565b925050604061194f86828701611890565b9150509250925092565b6000806040838503121561196c57600080fd5b600061197a8582860161187b565b925050602061198b85828601611890565b9150509250929050565b61199e81611f38565b82525050565b6119ad81611f4a565b82525050565b6119bc81611fa0565b82525050565b60006119cd82611e95565b6119d78185611ea0565b93506119e7818560208601611fb2565b6119f0816120d3565b840191505092915050565b6000611a08601d83611ea0565b9150611a13826120e4565b602082019050919050565b6000611a2b602383611ea0565b9150611a368261210d565b604082019050919050565b6000611a4e601e83611ea0565b9150611a598261215c565b602082019050919050565b6000611a71602283611ea0565b9150611a7c82612185565b604082019050919050565b6000611a94601d83611ea0565b9150611a9f826121d4565b602082019050919050565b6000611ab7602683611ea0565b9150611ac2826121fd565b604082019050919050565b6000611ada601283611ea0565b9150611ae58261224c565b602082019050919050565b6000611afd601283611ea0565b9150611b0882612275565b602082019050919050565b6000611b20602583611ea0565b9150611b2b8261229e565b604082019050919050565b6000611b43602483611ea0565b9150611b4e826122ed565b604082019050919050565b6000611b66601283611ea0565b9150611b718261233c565b602082019050919050565b6000611b89602f83611ea0565b9150611b9482612365565b604082019050919050565b6000611bac601f83611ea0565b9150611bb7826123b4565b602082019050919050565b6000611bcf602583611ea0565b9150611bda826123dd565b604082019050919050565b611bee81611f89565b82525050565b611bfd81611f93565b82525050565b6000602082019050611c186000830184611995565b92915050565b6000602082019050611c3360008301846119a4565b92915050565b6000602082019050611c4e60008301846119b3565b92915050565b60006020820190508181036000830152611c6e81846119c2565b905092915050565b60006020820190508181036000830152611c8f816119fb565b9050919050565b60006020820190508181036000830152611caf81611a1e565b9050919050565b60006020820190508181036000830152611ccf81611a41565b9050919050565b60006020820190508181036000830152611cef81611a64565b9050919050565b60006020820190508181036000830152611d0f81611a87565b9050919050565b60006020820190508181036000830152611d2f81611aaa565b9050919050565b60006020820190508181036000830152611d4f81611acd565b9050919050565b60006020820190508181036000830152611d6f81611af0565b9050919050565b60006020820190508181036000830152611d8f81611b13565b9050919050565b60006020820190508181036000830152611daf81611b36565b9050919050565b60006020820190508181036000830152611dcf81611b59565b9050919050565b60006020820190508181036000830152611def81611b7c565b9050919050565b60006020820190508181036000830152611e0f81611b9f565b9050919050565b60006020820190508181036000830152611e2f81611bc2565b9050919050565b6000602082019050611e4b6000830184611be5565b92915050565b6000604082019050611e666000830185611be5565b611e736020830184611be5565b9392505050565b6000602082019050611e8f6000830184611bf4565b92915050565b600081519050919050565b600082825260208201905092915050565b6000611ebc82611f89565b9150611ec783611f89565b9250827fffffffffffffffffffffffffffffffffffffffffffffffffffffffffffffffff03821115611efc57611efb612017565b5b828201905092915050565b6000611f1282611f89565b9150611f1d83611f89565b925082611f2d57611f2c612046565b5b828204905092915050565b6000611f4382611f69565b9050919050565b60008115159050919050565b6000819050611f648261242c565b919050565b600073ffffffffffffffffffffffffffffffffffffffff82169050919050565b6000819050919050565b600060ff82169050919050565b6000611fab82611f56565b9050919050565b60005b83811015611fd0578082015181840152602081019050611fb5565b83811115611fdf576000848401525b50505050565b60006002820490506001821680611ffd57607f821691505b60208210811415612011576120106120a4565b5b50919050565b7f4e487b7100000000000000000000000000000000000000000000000000000000600052601160045260246000fd5b7f4e487b7100000000000000000000000000000000000000000000000000000000600052601260045260246000fd5b7f4e487b7100000000000000000000000000000000000000000000000000000000600052602160045260246000fd5b7f4e487b7100000000000000000000000000000000000000000000000000000000600052602260045260246000fd5b6000601f19601f8301169050919050565b7f596f75206861766520746f20696e76657374206d6f7265206574686572000000600082015250565b7f45524332303a207472616e7366657220746f20746865207a65726f206164647260008201527f6573730000000000000000000000000000000000000000000000000000000000602082015250565b7f49636f2072616973656420616d6f756e74207761732065786365656465640000600082015250565b7f45524332303a20617070726f766520746f20746865207a65726f20616464726560008201527f7373000000000000000000000000000000000000000000000000000000000000602082015250565b7f45524332303a20696e73756666696369656e7420616c6c6f77616e6365000000600082015250565b7f45524332303a207472616e7366657220616d6f756e742065786365656473206260008201527f616c616e63650000000000000000000000000000000000000000000000000000602082015250565b7f4e6f7468696e6720746f20726566756e642e0000000000000000000000000000600082015250565b7f49434f206973206e6f742072756e6e696e670000000000000000000000000000600082015250565b7f45524332303a207472616e736665722066726f6d20746865207a65726f20616460008201527f6472657373000000000000000000000000000000000000000000000000000000602082015250565b7f45524332303a20617070726f76652066726f6d20746865207a65726f2061646460008201527f7265737300000000000000000000000000000000000000000000000000000000602082015250565b7f436f6e646974696f6e73206e6f74206d65740000000000000000000000000000600082015250565b7f596f75206861766520657863656564656420746865206d617820696e7665737460008201527f6d656e74207065722077616c6c65740000000000000000000000000000000000602082015250565b7f5265656e7472616e637947756172643a207265656e7472616e742063616c6c00600082015250565b7f45524332303a2064656372656173656420616c6c6f77616e63652062656c6f7760008201527f207a65726f000000000000000000000000000000000000000000000000000000602082015250565b6004811061243d5761243c612075565b5b50565b61244981611f38565b811461245457600080fd5b50565b61246081611f89565b811461246b57600080fd5b5056fea2646970667358221220316059495b1759407a36f4916dabb5dcac9191ab765a36db0c14ca1950a24aa464736f6c63430008020033",
  "linkReferences": {},
  "deployedLinkReferences": {}
}