{
  "_format": "hh-sol-artifact-1",
  "contractName": "TokenICO",
  "sourceName": "contracts/TokenICO.sol",
  "abi": [
    {
      "inputs": [
        {
          "internalType": "uint256",
          "name": "_startDate",
          "type": "uint256"
        },
        {
          "internalType": "string",
          "name": "_name",
          "type": "string"
        },
        {
          "internalType": "string",
          "name": "_symbol",
          "type": "string"
        }
      ],
      "stateMutability": "nonpayable",
      "type": "constructor"
    },
    {
      "anonymous": false,
      "inputs": [
        {
          "indexed": true,
          "internalType": "address",
          "name": "owner",
          "type": "address"
        },
        {
          "indexed": true,
          "internalType": "address",
          "name": "spender",
          "type": "address"
        },
        {
          "indexed": false,
          "internalType": "uint256",
          "name": "value",
          "type": "uint256"
        }
      ],
      "name": "Approval",
      "type": "event"
    },
    {
      "anonymous": false,
      "inputs": [
        {
          "indexed": true,
          "internalType": "address",
          "name": "investor",
          "type": "address"
        },
        {
          "indexed": false,
          "internalType": "uint256",
          "name": "amount",
          "type": "uint256"
        },
        {
          "indexed": false,
          "internalType": "uint256",
          "name": "tokens",
          "type": "uint256"
        }
      ],
      "name": "Invest",
      "type": "event"
    },
    {
      "anonymous": false,
      "inputs": [
        {
          "indexed": true,
          "internalType": "address",
          "name": "from",
          "type": "address"
        },
        {
          "indexed": true,
          "internalType": "address",
          "name": "to",
          "type": "address"
        },
        {
          "indexed": false,
          "internalType": "uint256",
          "name": "value",
          "type": "uint256"
        }
      ],
      "name": "Transfer",
      "type": "event"
    },
    {
      "stateMutability": "payable",
      "type": "fallback"
    },
    {
      "inputs": [],
      "name": "admin",
      "outputs": [
        {
          "internalType": "address",
          "name": "",
          "type": "address"
        }
      ],
      "stateMutability": "view",
      "type": "function"
    },
    {
      "inputs": [
        {
          "internalType": "address",
          "name": "owner",
          "type": "address"
        },
        {
          "internalType": "address",
          "name": "spender",
          "type": "address"
        }
      ],
      "name": "allowance",
      "outputs": [
        {
          "internalType": "uint256",
          "name": "",
          "type": "uint256"
        }
      ],
      "stateMutability": "view",
      "type": "function"
    },
    {
      "inputs": [
        {
          "internalType": "address",
          "name": "spender",
          "type": "address"
        },
        {
          "internalType": "uint256",
          "name": "amount",
          "type": "uint256"
        }
      ],
      "name": "approve",
      "outputs": [
        {
          "internalType": "bool",
          "name": "",
          "type": "bool"
        }
      ],
      "stateMutability": "nonpayable",
      "type": "function"
    },
    {
      "inputs": [
        {
          "internalType": "address",
          "name": "account",
          "type": "address"
        }
      ],
      "name": "balanceOf",
      "outputs": [
        {
          "internalType": "uint256",
          "name": "",
          "type": "uint256"
        }
      ],
      "stateMutability": "view",
      "type": "function"
    },
    {
      "inputs": [],
      "name": "decimals",
      "outputs": [
        {
          "internalType": "uint8",
          "name": "",
          "type": "uint8"
        }
      ],
      "stateMutability": "view",
      "type": "function"
    },
    {
      "inputs": [
        {
          "internalType": "address",
          "name": "spender",
          "type": "address"
        },
        {
          "internalType": "uint256",
          "name": "subtractedValue",
          "type": "uint256"
        }
      ],
      "name": "decreaseAllowance",
      "outputs": [
        {
          "internalType": "bool",
          "name": "",
          "type": "bool"
        }
      ],
      "stateMutability": "nonpayable",
      "type": "function"
    },
    {
      "inputs": [],
      "name": "endDate",
      "outputs": [
        {
          "internalType": "uint256",
          "name": "",
          "type": "uint256"
        }
      ],
      "stateMutability": "view",
      "type": "function"
    },
    {
      "inputs": [],
      "name": "founder",
      "outputs": [
        {
          "internalType": "address",
          "name": "",
          "type": "address"
        }
      ],
      "stateMutability": "view",
      "type": "function"
    },
    {
      "inputs": [],
      "name": "getCurrentState",
      "outputs": [
        {
          "internalType": "enum TokenICO.State",
          "name": "",
          "type": "uint8"
        }
      ],
      "stateMutability": "view",
      "type": "function"
    },
    {
      "inputs": [],
      "name": "halt",
      "outputs": [],
      "stateMutability": "nonpayable",
      "type": "function"
    },
    {
      "inputs": [],
      "name": "hardCap",
      "outputs": [
        {
          "internalType": "uint256",
          "name": "",
          "type": "uint256"
        }
      ],
      "stateMutability": "view",
      "type": "function"
    },
    {
      "inputs": [],
      "name": "icoState",
      "outputs": [
        {
          "internalType": "enum TokenICO.State",
          "name": "",
          "type": "uint8"
        }
      ],
      "stateMutability": "view",
      "type": "function"
    },
    {
      "inputs": [
        {
          "internalType": "address",
          "name": "spender",
          "type": "address"
        },
        {
          "internalType": "uint256",
          "name": "addedValue",
          "type": "uint256"
        }
      ],
      "name": "increaseAllowance",
      "outputs": [
        {
          "internalType": "bool",
          "name": "",
          "type": "bool"
        }
      ],
      "stateMutability": "nonpayable",
      "type": "function"
    },
    {
      "inputs": [],
      "name": "invest",
      "outputs": [
        {
          "internalType": "bool",
          "name": "",
          "type": "bool"
        }
      ],
      "stateMutability": "payable",
      "type": "function"
    },
    {
      "inputs": [],
      "name": "maxInvestment",
      "outputs": [
        {
          "internalType": "uint256",
          "name": "",
          "type": "uint256"
        }
      ],
      "stateMutability": "view",
      "type": "function"
    },
    {
      "inputs": [],
      "name": "minInvestment",
      "outputs": [
        {
          "internalType": "uint256",
          "name": "",
          "type": "uint256"
        }
      ],
      "stateMutability": "view",
      "type": "function"
    },
    {
      "inputs": [],
      "name": "name",
      "outputs": [
        {
          "internalType": "string",
          "name": "",
          "type": "string"
        }
      ],
      "stateMutability": "view",
      "type": "function"
    },
    {
      "inputs": [],
      "name": "raisedAmount",
      "outputs": [
        {
          "internalType": "uint256",
          "name": "",
          "type": "uint256"
        }
      ],
      "stateMutability": "view",
      "type": "function"
    },
    {
      "inputs": [],
      "name": "refund",
      "outputs": [
        {
          "internalType": "bool",
          "name": "",
          "type": "bool"
        }
      ],
      "stateMutability": "nonpayable",
      "type": "function"
    },
    {
      "inputs": [],
      "name": "resume",
      "outputs": [],
      "stateMutability": "nonpayable",
      "type": "function"
    },
    {
      "inputs": [],
      "name": "softCap",
      "outputs": [
        {
          "internalType": "uint256",
          "name": "",
          "type": "uint256"
        }
      ],
      "stateMutability": "view",
      "type": "function"
    },
    {
      "inputs": [],
      "name": "startDate",
      "outputs": [
        {
          "internalType": "uint256",
          "name": "",
          "type": "uint256"
        }
      ],
      "stateMutability": "view",
      "type": "function"
    },
    {
      "inputs": [],
      "name": "startTradingDate",
      "outputs": [
        {
          "internalType": "uint256",
          "name": "",
          "type": "uint256"
        }
      ],
      "stateMutability": "view",
      "type": "function"
    },
    {
      "inputs": [],
      "name": "symbol",
      "outputs": [
        {
          "internalType": "string",
          "name": "",
          "type": "string"
        }
      ],
      "stateMutability": "view",
      "type": "function"
    },
    {
      "inputs": [],
      "name": "tokenPrice",
      "outputs": [
        {
          "internalType": "uint256",
          "name": "",
          "type": "uint256"
        }
      ],
      "stateMutability": "view",
      "type": "function"
    },
    {
      "inputs": [],
      "name": "totalSupply",
      "outputs": [
        {
          "internalType": "uint256",
          "name": "",
          "type": "uint256"
        }
      ],
      "stateMutability": "view",
      "type": "function"
    },
    {
      "inputs": [
        {
          "internalType": "address",
          "name": "to",
          "type": "address"
        },
        {
          "internalType": "uint256",
          "name": "tokens",
          "type": "uint256"
        }
      ],
      "name": "transfer",
      "outputs": [
        {
          "internalType": "bool",
          "name": "success",
          "type": "bool"
        }
      ],
      "stateMutability": "nonpayable",
      "type": "function"
    },
    {
      "inputs": [
        {
          "internalType": "address",
          "name": "from",
          "type": "address"
        },
        {
          "internalType": "address",
          "name": "to",
          "type": "address"
        },
        {
          "internalType": "uint256",
          "name": "tokens",
          "type": "uint256"
        }
      ],
      "name": "transferFrom",
      "outputs": [
        {
          "internalType": "bool",
          "name": "success",
          "type": "bool"
        }
      ],
      "stateMutability": "nonpayable",
      "type": "function"
    },
    {
      "stateMutability": "payable",
      "type": "receive"
    }
  ],
  "bytecode": "0x6080604052674563918244f40000600c55662386f26fc10000600d5566038d7ea4c68000600e55678ac7230489e80000600f55674563918244f400006010553480156200004b57600080fd5b5060405162002cd638038062002cd6833981810160405281019062000071919062000496565b8181818181600390805190602001906200008d9291906200035d565b508060049080519060200190620000a69291906200035d565b50505033600560006101000a81548173ffffffffffffffffffffffffffffffffffffffff021916908373ffffffffffffffffffffffffffffffffffffffff160217905550505060016006819055508260088190555060286008546200010c919062000605565b600981905550603c60095462000123919062000605565b600a819055506000601260006101000a81548160ff0219169083600381111562000176577f4e487b7100000000000000000000000000000000000000000000000000000000600052602160045260246000fd5b021790555033600760006101000a81548173ffffffffffffffffffffffffffffffffffffffff021916908373ffffffffffffffffffffffffffffffffffffffff160217905550620001d130620186a0620001da60201b60201c565b505050620007ef565b600073ffffffffffffffffffffffffffffffffffffffff168273ffffffffffffffffffffffffffffffffffffffff1614156200024d576040517f08c379a0000000000000000000000000000000000000000000000000000000008152600401620002449062000556565b60405180910390fd5b62000261600083836200035360201b60201c565b806002600082825462000275919062000605565b92505081905550806000808473ffffffffffffffffffffffffffffffffffffffff1673ffffffffffffffffffffffffffffffffffffffff1681526020019081526020016000206000828254620002cc919062000605565b925050819055508173ffffffffffffffffffffffffffffffffffffffff16600073ffffffffffffffffffffffffffffffffffffffff167fddf252ad1be2c89b69c2b068fc378daa952ba7f163c4a11628f55a4df523b3ef8360405162000333919062000578565b60405180910390a36200034f600083836200035860201b60201c565b5050565b505050565b505050565b8280546200036b90620006a2565b90600052602060002090601f0160209004810192826200038f5760008555620003db565b82601f10620003aa57805160ff1916838001178555620003db565b82800160010185558215620003db579182015b82811115620003da578251825591602001919060010190620003bd565b5b509050620003ea9190620003ee565b5090565b5b8082111562000409576000816000905550600101620003ef565b5090565b6000620004246200041e84620005be565b62000595565b9050828152602081018484840111156200043d57600080fd5b6200044a8482856200066c565b509392505050565b600082601f8301126200046457600080fd5b8151620004768482602086016200040d565b91505092915050565b6000815190506200049081620007d5565b92915050565b600080600060608486031215620004ac57600080fd5b6000620004bc868287016200047f565b935050602084015167ffffffffffffffff811115620004da57600080fd5b620004e88682870162000452565b925050604084015167ffffffffffffffff8111156200050657600080fd5b620005148682870162000452565b9150509250925092565b60006200052d601f83620005f4565b91506200053a82620007ac565b602082019050919050565b620005508162000662565b82525050565b6000602082019050818103600083015262000571816200051e565b9050919050565b60006020820190506200058f600083018462000545565b92915050565b6000620005a1620005b4565b9050620005af8282620006d8565b919050565b6000604051905090565b600067ffffffffffffffff821115620005dc57620005db6200076c565b5b620005e7826200079b565b9050602081019050919050565b600082825260208201905092915050565b6000620006128262000662565b91506200061f8362000662565b9250827fffffffffffffffffffffffffffffffffffffffffffffffffffffffffffffffff038211156200065757620006566200070e565b5b828201905092915050565b6000819050919050565b60005b838110156200068c5780820151818401526020810190506200066f565b838111156200069c576000848401525b50505050565b60006002820490506001821680620006bb57607f821691505b60208210811415620006d257620006d16200073d565b5b50919050565b620006e3826200079b565b810181811067ffffffffffffffff821117156200070557620007046200076c565b5b80604052505050565b7f4e487b7100000000000000000000000000000000000000000000000000000000600052601160045260246000fd5b7f4e487b7100000000000000000000000000000000000000000000000000000000600052602260045260246000fd5b7f4e487b7100000000000000000000000000000000000000000000000000000000600052604160045260246000fd5b6000601f19601f8301169050919050565b7f45524332303a206d696e7420746f20746865207a65726f206164647265737300600082015250565b620007e08162000662565b8114620007ec57600080fd5b50565b6124d780620007ff6000396000f3fe6080604052600436106101ba5760003560e01c80635ed7ca5b116100ec578063a9059cbb1161008a578063dd62ed3e11610064578063dd62ed3e14610618578063e8b5e51f14610655578063f851a44014610673578063fb86a4041461069e576101ca565b8063a9059cbb14610585578063c24a0f8b146105c2578063c59ee1dc146105ed576101ca565b80638ac2c680116100c65780638ac2c680146104c7578063906a26e0146104f257806395d89b411461051d578063a457c2d714610548576101ca565b80635ed7ca5b1461044857806370a082311461045f5780637ff9b5961461049c576101ca565b80632ee797c2116101595780633950935111610133578063395093511461038a57806344f38756146103c75780634d853ee5146103f2578063590e1ae31461041d576101ca565b80632ee797c214610309578063313ce56714610334578063378aa7011461035f576101ca565b8063095ea7b311610195578063095ea7b3146102395780630b97bc861461027657806318160ddd146102a157806323b872dd146102cc576101ca565b80622e1316146101cc578063046f7da2146101f757806306fdde031461020e576101ca565b366101ca576101c76106c9565b50005b005b3480156101d857600080fd5b506101e1610a2d565b6040516101ee9190611e69565b60405180910390f35b34801561020357600080fd5b5061020c610a33565b005b34801561021a57600080fd5b50610223610ae9565b6040516102309190611c87565b60405180910390f35b34801561024557600080fd5b50610260600480360381019061025b919061198c565b610b7b565b60405161026d9190611c51565b60405180910390f35b34801561028257600080fd5b5061028b610b9e565b6040516102989190611e69565b60405180910390f35b3480156102ad57600080fd5b506102b6610ba4565b6040516102c39190611e69565b60405180910390f35b3480156102d857600080fd5b506102f360048036038101906102ee919061193d565b610bae565b6040516103009190611c51565b60405180910390f35b34801561031557600080fd5b5061031e610bd5565b60405161032b9190611e69565b60405180910390f35b34801561034057600080fd5b50610349610bdb565b6040516103569190611ead565b60405180910390f35b34801561036b57600080fd5b50610374610be4565b6040516103819190611c6c565b60405180910390f35b34801561039657600080fd5b506103b160048036038101906103ac919061198c565b610cb1565b6040516103be9190611c51565b60405180910390f35b3480156103d357600080fd5b506103dc610ce8565b6040516103e99190611c6c565b60405180910390f35b3480156103fe57600080fd5b50610407610cfb565b6040516104149190611c36565b60405180910390f35b34801561042957600080fd5b50610432610d21565b60405161043f9190611c51565b60405180910390f35b34801561045457600080fd5b5061045d610fbc565b005b34801561046b57600080fd5b50610486600480360381019061048191906118d8565b611069565b6040516104939190611e69565b60405180910390f35b3480156104a857600080fd5b506104b16110b1565b6040516104be9190611e69565b60405180910390f35b3480156104d357600080fd5b506104dc6110b7565b6040516104e99190611e69565b60405180910390f35b3480156104fe57600080fd5b506105076110bd565b6040516105149190611e69565b60405180910390f35b34801561052957600080fd5b506105326110c3565b60405161053f9190611c87565b60405180910390f35b34801561055457600080fd5b5061056f600480360381019061056a919061198c565b611155565b60405161057c9190611c51565b60405180910390f35b34801561059157600080fd5b506105ac60048036038101906105a7919061198c565b6111cc565b6040516105b99190611c51565b60405180910390f35b3480156105ce57600080fd5b506105d76111f1565b6040516105e49190611e69565b60405180910390f35b3480156105f957600080fd5b506106026111f7565b60405161060f9190611e69565b60405180910390f35b34801561062457600080fd5b5061063f600480360381019061063a9190611901565b6111fd565b60405161064c9190611e69565b60405180910390f35b61065d6106c9565b60405161066a9190611c51565b60405180910390f35b34801561067f57600080fd5b50610688611284565b6040516106959190611c36565b60405180910390f35b3480156106aa57600080fd5b506106b36112aa565b6040516106c09190611e69565b60405180910390f35b600060026006541415610711576040517f08c379a000000000000000000000000000000000000000000000000000000000815260040161070890611e29565b60405180910390fd5b6002600681905550610721610be4565b601260006101000a81548160ff0219169083600381111561076b577f4e487b7100000000000000000000000000000000000000000000000000000000600052602160045260246000fd5b0217905550600160038111156107aa577f4e487b7100000000000000000000000000000000000000000000000000000000600052602160045260246000fd5b601260009054906101000a900460ff1660038111156107f2577f4e487b7100000000000000000000000000000000000000000000000000000000600052602160045260246000fd5b14610832576040517f08c379a000000000000000000000000000000000000000000000000000000000815260040161082990611d89565b60405180910390fd5b600d543411610876576040517f08c379a000000000000000000000000000000000000000000000000000000000815260040161086d90611ca9565b60405180910390fd5b34600b60003373ffffffffffffffffffffffffffffffffffffffff1673ffffffffffffffffffffffffffffffffffffffff16815260200190815260200160002060008282546108c59190611ee4565b92505081905550600c54600b60003373ffffffffffffffffffffffffffffffffffffffff1673ffffffffffffffffffffffffffffffffffffffff168152602001908152602001600020541115610950576040517f08c379a000000000000000000000000000000000000000000000000000000000815260040161094790611e09565b60405180910390fd5b34601160008282546109629190611ee4565b92505081905550600f5460115411156109b0576040517f08c379a00000000000000000000000000000000000000000000000000000000081526004016109a790611ce9565b60405180910390fd5b6000600e54346109c09190611f3a565b90506109cd3033836112b0565b3373ffffffffffffffffffffffffffffffffffffffff167f4ae4bd7655e0d350876a23cd90c4227b13db560e34435c6a488150a9c844bf5f3483604051610a15929190611e84565b60405180910390a26001915050600160068190555090565b600c5481565b600760009054906101000a900473ffffffffffffffffffffffffffffffffffffffff1673ffffffffffffffffffffffffffffffffffffffff163373ffffffffffffffffffffffffffffffffffffffff1614610a8d57600080fd5b6001601260006101000a81548160ff02191690836003811115610ad9577f4e487b7100000000000000000000000000000000000000000000000000000000600052602160045260246000fd5b0217905550610ae743611531565b565b606060038054610af890612018565b80601f0160208091040260200160405190810160405280929190818152602001828054610b2490612018565b8015610b715780601f10610b4657610100808354040283529160200191610b71565b820191906000526020600020905b815481529060010190602001808311610b5457829003601f168201915b5050505050905090565b600080610b866115ca565b9050610b938185856115d2565b600191505092915050565b60085481565b6000600254905090565b6000600a544311610bbe57600080fd5b610bc984848461179d565b50600190509392505050565b600a5481565b60006012905090565b6000600380811115610c1f577f4e487b7100000000000000000000000000000000000000000000000000000000600052602160045260246000fd5b601260009054906101000a900460ff166003811115610c67577f4e487b7100000000000000000000000000000000000000000000000000000000600052602160045260246000fd5b1415610c765760039050610cae565b600854431015610c895760009050610cae565b60085443118015610c9b575060095443105b15610ca95760019050610cae565b600290505b90565b600080610cbc6115ca565b9050610cdd818585610cce85896111fd565b610cd89190611ee4565b6115d2565b600191505092915050565b601260009054906101000a900460ff1681565b600560009054906101000a900473ffffffffffffffffffffffffffffffffffffffff1681565b600060026006541415610d69576040517f08c379a0000000000000000000000000000000000000000000000000000000008152600401610d6090611e29565b60405180910390fd5b60026006819055506000600b60003373ffffffffffffffffffffffffffffffffffffffff1673ffffffffffffffffffffffffffffffffffffffff168152602001908152602001600020549050610dbd610be4565b601260006101000a81548160ff02191690836003811115610e07577f4e487b7100000000000000000000000000000000000000000000000000000000600052602160045260246000fd5b021790555060008111610e4f576040517f08c379a0000000000000000000000000000000000000000000000000000000008152600401610e4690611d69565b60405180910390fd5b60026003811115610e89577f4e487b7100000000000000000000000000000000000000000000000000000000600052602160045260246000fd5b601260009054906101000a900460ff166003811115610ed1577f4e487b7100000000000000000000000000000000000000000000000000000000600052602160045260246000fd5b148015610ee15750601054601154105b610f20576040517f08c379a0000000000000000000000000000000000000000000000000000000008152600401610f1790611de9565b60405180910390fd5b6000600b60003373ffffffffffffffffffffffffffffffffffffffff1673ffffffffffffffffffffffffffffffffffffffff168152602001908152602001600020819055503373ffffffffffffffffffffffffffffffffffffffff166108fc829081150290604051600060405180830381858888f19350505050158015610fab573d6000803e3d6000fd5b506001915050600160068190555090565b600760009054906101000a900473ffffffffffffffffffffffffffffffffffffffff1673ffffffffffffffffffffffffffffffffffffffff163373ffffffffffffffffffffffffffffffffffffffff161461101657600080fd5b6003601260006101000a81548160ff02191690836003811115611062577f4e487b7100000000000000000000000000000000000000000000000000000000600052602160045260246000fd5b0217905550565b60008060008373ffffffffffffffffffffffffffffffffffffffff1673ffffffffffffffffffffffffffffffffffffffff168152602001908152602001600020549050919050565b600e5481565b600d5481565b60105481565b6060600480546110d290612018565b80601f01602080910402602001604051908101604052809291908181526020018280546110fe90612018565b801561114b5780601f106111205761010080835404028352916020019161114b565b820191906000526020600020905b81548152906001019060200180831161112e57829003601f168201915b5050505050905090565b6000806111606115ca565b9050600061116e82866111fd565b9050838110156111b3576040517f08c379a00000000000000000000000000000000000000000000000000000000081526004016111aa90611e49565b60405180910390fd5b6111c082868684036115d2565b60019250505092915050565b6000600a5443116111dc57600080fd5b6111e683836117cc565b506001905092915050565b60095481565b60115481565b6000600160008473ffffffffffffffffffffffffffffffffffffffff1673ffffffffffffffffffffffffffffffffffffffff16815260200190815260200160002060008373ffffffffffffffffffffffffffffffffffffffff1673ffffffffffffffffffffffffffffffffffffffff16815260200190815260200160002054905092915050565b600760009054906101000a900473ffffffffffffffffffffffffffffffffffffffff1681565b600f5481565b600073ffffffffffffffffffffffffffffffffffffffff168373ffffffffffffffffffffffffffffffffffffffff161415611320576040517f08c379a000000000000000000000000000000000000000000000000000000000815260040161131790611da9565b60405180910390fd5b600073ffffffffffffffffffffffffffffffffffffffff168273ffffffffffffffffffffffffffffffffffffffff161415611390576040517f08c379a000000000000000000000000000000000000000000000000000000000815260040161138790611cc9565b60405180910390fd5b61139b8383836117ef565b60008060008573ffffffffffffffffffffffffffffffffffffffff1673ffffffffffffffffffffffffffffffffffffffff16815260200190815260200160002054905081811015611421576040517f08c379a000000000000000000000000000000000000000000000000000000000815260040161141890611d49565b60405180910390fd5b8181036000808673ffffffffffffffffffffffffffffffffffffffff1673ffffffffffffffffffffffffffffffffffffffff16815260200190815260200160002081905550816000808573ffffffffffffffffffffffffffffffffffffffff1673ffffffffffffffffffffffffffffffffffffffff16815260200190815260200160002060008282546114b49190611ee4565b925050819055508273ffffffffffffffffffffffffffffffffffffffff168473ffffffffffffffffffffffffffffffffffffffff167fddf252ad1be2c89b69c2b068fc378daa952ba7f163c4a11628f55a4df523b3ef846040516115189190611e69565b60405180910390a361152b8484846117f4565b50505050565b6115c7816040516024016115459190611e69565b6040516020818303038152906040527ff5b1bba9000000000000000000000000000000000000000000000000000000007bffffffffffffffffffffffffffffffffffffffffffffffffffffffff19166020820180517bffffffffffffffffffffffffffffffffffffffffffffffffffffffff83818316178352505050506117f9565b50565b600033905090565b600073ffffffffffffffffffffffffffffffffffffffff168373ffffffffffffffffffffffffffffffffffffffff161415611642576040517f08c379a000000000000000000000000000000000000000000000000000000000815260040161163990611dc9565b60405180910390fd5b600073ffffffffffffffffffffffffffffffffffffffff168273ffffffffffffffffffffffffffffffffffffffff1614156116b2576040517f08c379a00000000000000000000000000000000000000000000000000000000081526004016116a990611d09565b60405180910390fd5b80600160008573ffffffffffffffffffffffffffffffffffffffff1673ffffffffffffffffffffffffffffffffffffffff16815260200190815260200160002060008473ffffffffffffffffffffffffffffffffffffffff1673ffffffffffffffffffffffffffffffffffffffff168152602001908152602001600020819055508173ffffffffffffffffffffffffffffffffffffffff168373ffffffffffffffffffffffffffffffffffffffff167f8c5be1e5ebec7d5bd14f71427d1e84f3dd0314c0f7b2291e5b200ac8c7c3b925836040516117909190611e69565b60405180910390a3505050565b6000806117a86115ca565b90506117b5858285611822565b6117c08585856112b0565b60019150509392505050565b6000806117d76115ca565b90506117e48185856112b0565b600191505092915050565b505050565b505050565b60008151905060006a636f6e736f6c652e6c6f679050602083016000808483855afa5050505050565b600061182e84846111fd565b90507fffffffffffffffffffffffffffffffffffffffffffffffffffffffffffffffff81146118a8578181101561189a576040517f08c379a000000000000000000000000000000000000000000000000000000000815260040161189190611d29565b60405180910390fd5b6118a784848484036115d2565b5b50505050565b6000813590506118bd81612473565b92915050565b6000813590506118d28161248a565b92915050565b6000602082840312156118ea57600080fd5b60006118f8848285016118ae565b91505092915050565b6000806040838503121561191457600080fd5b6000611922858286016118ae565b9250506020611933858286016118ae565b9150509250929050565b60008060006060848603121561195257600080fd5b6000611960868287016118ae565b9350506020611971868287016118ae565b9250506040611982868287016118c3565b9150509250925092565b6000806040838503121561199f57600080fd5b60006119ad858286016118ae565b92505060206119be858286016118c3565b9150509250929050565b6119d181611f6b565b82525050565b6119e081611f7d565b82525050565b6119ef81611fd3565b82525050565b6000611a0082611ec8565b611a0a8185611ed3565b9350611a1a818560208601611fe5565b611a2381612106565b840191505092915050565b6000611a3b601d83611ed3565b9150611a4682612117565b602082019050919050565b6000611a5e602383611ed3565b9150611a6982612140565b604082019050919050565b6000611a81601e83611ed3565b9150611a8c8261218f565b602082019050919050565b6000611aa4602283611ed3565b9150611aaf826121b8565b604082019050919050565b6000611ac7601d83611ed3565b9150611ad282612207565b602082019050919050565b6000611aea602683611ed3565b9150611af582612230565b604082019050919050565b6000611b0d601283611ed3565b9150611b188261227f565b602082019050919050565b6000611b30601283611ed3565b9150611b3b826122a8565b602082019050919050565b6000611b53602583611ed3565b9150611b5e826122d1565b604082019050919050565b6000611b76602483611ed3565b9150611b8182612320565b604082019050919050565b6000611b99601283611ed3565b9150611ba48261236f565b602082019050919050565b6000611bbc602f83611ed3565b9150611bc782612398565b604082019050919050565b6000611bdf601f83611ed3565b9150611bea826123e7565b602082019050919050565b6000611c02602583611ed3565b9150611c0d82612410565b604082019050919050565b611c2181611fbc565b82525050565b611c3081611fc6565b82525050565b6000602082019050611c4b60008301846119c8565b92915050565b6000602082019050611c6660008301846119d7565b92915050565b6000602082019050611c8160008301846119e6565b92915050565b60006020820190508181036000830152611ca181846119f5565b905092915050565b60006020820190508181036000830152611cc281611a2e565b9050919050565b60006020820190508181036000830152611ce281611a51565b9050919050565b60006020820190508181036000830152611d0281611a74565b9050919050565b60006020820190508181036000830152611d2281611a97565b9050919050565b60006020820190508181036000830152611d4281611aba565b9050919050565b60006020820190508181036000830152611d6281611add565b9050919050565b60006020820190508181036000830152611d8281611b00565b9050919050565b60006020820190508181036000830152611da281611b23565b9050919050565b60006020820190508181036000830152611dc281611b46565b9050919050565b60006020820190508181036000830152611de281611b69565b9050919050565b60006020820190508181036000830152611e0281611b8c565b9050919050565b60006020820190508181036000830152611e2281611baf565b9050919050565b60006020820190508181036000830152611e4281611bd2565b9050919050565b60006020820190508181036000830152611e6281611bf5565b9050919050565b6000602082019050611e7e6000830184611c18565b92915050565b6000604082019050611e996000830185611c18565b611ea66020830184611c18565b9392505050565b6000602082019050611ec26000830184611c27565b92915050565b600081519050919050565b600082825260208201905092915050565b6000611eef82611fbc565b9150611efa83611fbc565b9250827fffffffffffffffffffffffffffffffffffffffffffffffffffffffffffffffff03821115611f2f57611f2e61204a565b5b828201905092915050565b6000611f4582611fbc565b9150611f5083611fbc565b925082611f6057611f5f612079565b5b828204905092915050565b6000611f7682611f9c565b9050919050565b60008115159050919050565b6000819050611f978261245f565b919050565b600073ffffffffffffffffffffffffffffffffffffffff82169050919050565b6000819050919050565b600060ff82169050919050565b6000611fde82611f89565b9050919050565b60005b83811015612003578082015181840152602081019050611fe8565b83811115612012576000848401525b50505050565b6000600282049050600182168061203057607f821691505b60208210811415612044576120436120d7565b5b50919050565b7f4e487b7100000000000000000000000000000000000000000000000000000000600052601160045260246000fd5b7f4e487b7100000000000000000000000000000000000000000000000000000000600052601260045260246000fd5b7f4e487b7100000000000000000000000000000000000000000000000000000000600052602160045260246000fd5b7f4e487b7100000000000000000000000000000000000000000000000000000000600052602260045260246000fd5b6000601f19601f8301169050919050565b7f596f75206861766520746f20696e76657374206d6f7265206574686572000000600082015250565b7f45524332303a207472616e7366657220746f20746865207a65726f206164647260008201527f6573730000000000000000000000000000000000000000000000000000000000602082015250565b7f49636f2072616973656420616d6f756e74207761732065786365656465640000600082015250565b7f45524332303a20617070726f766520746f20746865207a65726f20616464726560008201527f7373000000000000000000000000000000000000000000000000000000000000602082015250565b7f45524332303a20696e73756666696369656e7420616c6c6f77616e6365000000600082015250565b7f45524332303a207472616e7366657220616d6f756e742065786365656473206260008201527f616c616e63650000000000000000000000000000000000000000000000000000602082015250565b7f4e6f7468696e6720746f20726566756e642e0000000000000000000000000000600082015250565b7f49434f206973206e6f742072756e6e696e670000000000000000000000000000600082015250565b7f45524332303a207472616e736665722066726f6d20746865207a65726f20616460008201527f6472657373000000000000000000000000000000000000000000000000000000602082015250565b7f45524332303a20617070726f76652066726f6d20746865207a65726f2061646460008201527f7265737300000000000000000000000000000000000000000000000000000000602082015250565b7f436f6e646974696f6e73206e6f74206d65740000000000000000000000000000600082015250565b7f596f75206861766520657863656564656420746865206d617820696e7665737460008201527f6d656e74207065722077616c6c65740000000000000000000000000000000000602082015250565b7f5265656e7472616e637947756172643a207265656e7472616e742063616c6c00600082015250565b7f45524332303a2064656372656173656420616c6c6f77616e63652062656c6f7760008201527f207a65726f000000000000000000000000000000000000000000000000000000602082015250565b600481106124705761246f6120a8565b5b50565b61247c81611f6b565b811461248757600080fd5b50565b61249381611fbc565b811461249e57600080fd5b5056fea2646970667358221220ed5dceae359c4341a8e512b7f01a07be9dcd47dcf597b3d77930893a5600838364736f6c63430008020033",
  "linkReferences": {},
  "deployedLinkReferences": {}
}