{
  "_format": "hh-sol-artifact-1",
  "contractName": "TokenICO",
  "sourceName": "contracts/TokenICO.sol",
  "abi": [
    {
      "inputs": [
        {
          "internalType": "uint256",
          "name": "_startDate",
          "type": "uint256"
        },
        {
          "internalType": "string",
          "name": "_name",
          "type": "string"
        },
        {
          "internalType": "string",
          "name": "_symbol",
          "type": "string"
        }
      ],
      "stateMutability": "nonpayable",
      "type": "constructor"
    },
    {
      "anonymous": false,
      "inputs": [
        {
          "indexed": true,
          "internalType": "address",
          "name": "owner",
          "type": "address"
        },
        {
          "indexed": true,
          "internalType": "address",
          "name": "spender",
          "type": "address"
        },
        {
          "indexed": false,
          "internalType": "uint256",
          "name": "value",
          "type": "uint256"
        }
      ],
      "name": "Approval",
      "type": "event"
    },
    {
      "anonymous": false,
      "inputs": [
        {
          "indexed": true,
          "internalType": "address",
          "name": "investor",
          "type": "address"
        },
        {
          "indexed": false,
          "internalType": "uint256",
          "name": "amount",
          "type": "uint256"
        },
        {
          "indexed": false,
          "internalType": "uint256",
          "name": "tokens",
          "type": "uint256"
        }
      ],
      "name": "Invest",
      "type": "event"
    },
    {
      "anonymous": false,
      "inputs": [
        {
          "indexed": true,
          "internalType": "address",
          "name": "from",
          "type": "address"
        },
        {
          "indexed": true,
          "internalType": "address",
          "name": "to",
          "type": "address"
        },
        {
          "indexed": false,
          "internalType": "uint256",
          "name": "value",
          "type": "uint256"
        }
      ],
      "name": "Transfer",
      "type": "event"
    },
    {
      "stateMutability": "payable",
      "type": "fallback"
    },
    {
      "inputs": [],
      "name": "admin",
      "outputs": [
        {
          "internalType": "address",
          "name": "",
          "type": "address"
        }
      ],
      "stateMutability": "view",
      "type": "function"
    },
    {
      "inputs": [
        {
          "internalType": "address",
          "name": "owner",
          "type": "address"
        },
        {
          "internalType": "address",
          "name": "spender",
          "type": "address"
        }
      ],
      "name": "allowance",
      "outputs": [
        {
          "internalType": "uint256",
          "name": "",
          "type": "uint256"
        }
      ],
      "stateMutability": "view",
      "type": "function"
    },
    {
      "inputs": [
        {
          "internalType": "address",
          "name": "spender",
          "type": "address"
        },
        {
          "internalType": "uint256",
          "name": "amount",
          "type": "uint256"
        }
      ],
      "name": "approve",
      "outputs": [
        {
          "internalType": "bool",
          "name": "",
          "type": "bool"
        }
      ],
      "stateMutability": "nonpayable",
      "type": "function"
    },
    {
      "inputs": [
        {
          "internalType": "address",
          "name": "account",
          "type": "address"
        }
      ],
      "name": "balanceOf",
      "outputs": [
        {
          "internalType": "uint256",
          "name": "",
          "type": "uint256"
        }
      ],
      "stateMutability": "view",
      "type": "function"
    },
    {
      "inputs": [],
      "name": "decimals",
      "outputs": [
        {
          "internalType": "uint8",
          "name": "",
          "type": "uint8"
        }
      ],
      "stateMutability": "view",
      "type": "function"
    },
    {
      "inputs": [
        {
          "internalType": "address",
          "name": "spender",
          "type": "address"
        },
        {
          "internalType": "uint256",
          "name": "subtractedValue",
          "type": "uint256"
        }
      ],
      "name": "decreaseAllowance",
      "outputs": [
        {
          "internalType": "bool",
          "name": "",
          "type": "bool"
        }
      ],
      "stateMutability": "nonpayable",
      "type": "function"
    },
    {
      "inputs": [],
      "name": "endDate",
      "outputs": [
        {
          "internalType": "uint256",
          "name": "",
          "type": "uint256"
        }
      ],
      "stateMutability": "view",
      "type": "function"
    },
    {
      "inputs": [],
      "name": "founder",
      "outputs": [
        {
          "internalType": "address",
          "name": "",
          "type": "address"
        }
      ],
      "stateMutability": "view",
      "type": "function"
    },
    {
      "inputs": [],
      "name": "getCurrentState",
      "outputs": [
        {
          "internalType": "enum TokenICO.State",
          "name": "",
          "type": "uint8"
        }
      ],
      "stateMutability": "view",
      "type": "function"
    },
    {
      "inputs": [],
      "name": "halt",
      "outputs": [],
      "stateMutability": "nonpayable",
      "type": "function"
    },
    {
      "inputs": [],
      "name": "hardCap",
      "outputs": [
        {
          "internalType": "uint256",
          "name": "",
          "type": "uint256"
        }
      ],
      "stateMutability": "view",
      "type": "function"
    },
    {
      "inputs": [],
      "name": "icoState",
      "outputs": [
        {
          "internalType": "enum TokenICO.State",
          "name": "",
          "type": "uint8"
        }
      ],
      "stateMutability": "view",
      "type": "function"
    },
    {
      "inputs": [
        {
          "internalType": "address",
          "name": "spender",
          "type": "address"
        },
        {
          "internalType": "uint256",
          "name": "addedValue",
          "type": "uint256"
        }
      ],
      "name": "increaseAllowance",
      "outputs": [
        {
          "internalType": "bool",
          "name": "",
          "type": "bool"
        }
      ],
      "stateMutability": "nonpayable",
      "type": "function"
    },
    {
      "inputs": [],
      "name": "invest",
      "outputs": [
        {
          "internalType": "bool",
          "name": "",
          "type": "bool"
        }
      ],
      "stateMutability": "payable",
      "type": "function"
    },
    {
      "inputs": [],
      "name": "maxInvestment",
      "outputs": [
        {
          "internalType": "uint256",
          "name": "",
          "type": "uint256"
        }
      ],
      "stateMutability": "view",
      "type": "function"
    },
    {
      "inputs": [],
      "name": "minInvestment",
      "outputs": [
        {
          "internalType": "uint256",
          "name": "",
          "type": "uint256"
        }
      ],
      "stateMutability": "view",
      "type": "function"
    },
    {
      "inputs": [],
      "name": "name",
      "outputs": [
        {
          "internalType": "string",
          "name": "",
          "type": "string"
        }
      ],
      "stateMutability": "view",
      "type": "function"
    },
    {
      "inputs": [],
      "name": "raisedAmount",
      "outputs": [
        {
          "internalType": "uint256",
          "name": "",
          "type": "uint256"
        }
      ],
      "stateMutability": "view",
      "type": "function"
    },
    {
      "inputs": [],
      "name": "refund",
      "outputs": [
        {
          "internalType": "bool",
          "name": "",
          "type": "bool"
        }
      ],
      "stateMutability": "nonpayable",
      "type": "function"
    },
    {
      "inputs": [],
      "name": "resume",
      "outputs": [],
      "stateMutability": "nonpayable",
      "type": "function"
    },
    {
      "inputs": [],
      "name": "softCap",
      "outputs": [
        {
          "internalType": "uint256",
          "name": "",
          "type": "uint256"
        }
      ],
      "stateMutability": "view",
      "type": "function"
    },
    {
      "inputs": [],
      "name": "startDate",
      "outputs": [
        {
          "internalType": "uint256",
          "name": "",
          "type": "uint256"
        }
      ],
      "stateMutability": "view",
      "type": "function"
    },
    {
      "inputs": [],
      "name": "startTradingDate",
      "outputs": [
        {
          "internalType": "uint256",
          "name": "",
          "type": "uint256"
        }
      ],
      "stateMutability": "view",
      "type": "function"
    },
    {
      "inputs": [],
      "name": "symbol",
      "outputs": [
        {
          "internalType": "string",
          "name": "",
          "type": "string"
        }
      ],
      "stateMutability": "view",
      "type": "function"
    },
    {
      "inputs": [],
      "name": "tokenPrice",
      "outputs": [
        {
          "internalType": "uint256",
          "name": "",
          "type": "uint256"
        }
      ],
      "stateMutability": "view",
      "type": "function"
    },
    {
      "inputs": [],
      "name": "totalSupply",
      "outputs": [
        {
          "internalType": "uint256",
          "name": "",
          "type": "uint256"
        }
      ],
      "stateMutability": "view",
      "type": "function"
    },
    {
      "inputs": [
        {
          "internalType": "address",
          "name": "to",
          "type": "address"
        },
        {
          "internalType": "uint256",
          "name": "tokens",
          "type": "uint256"
        }
      ],
      "name": "transfer",
      "outputs": [
        {
          "internalType": "bool",
          "name": "success",
          "type": "bool"
        }
      ],
      "stateMutability": "nonpayable",
      "type": "function"
    },
    {
      "inputs": [
        {
          "internalType": "address",
          "name": "from",
          "type": "address"
        },
        {
          "internalType": "address",
          "name": "to",
          "type": "address"
        },
        {
          "internalType": "uint256",
          "name": "tokens",
          "type": "uint256"
        }
      ],
      "name": "transferFrom",
      "outputs": [
        {
          "internalType": "bool",
          "name": "success",
          "type": "bool"
        }
      ],
      "stateMutability": "nonpayable",
      "type": "function"
    },
    {
      "stateMutability": "payable",
      "type": "receive"
    }
  ],
  "bytecode": "0x6080604052674563918244f40000600c55662386f26fc10000600d5566038d7ea4c68000600e55678ac7230489e80000600f55674563918244f400006010553480156200004b57600080fd5b5060405162002c0b38038062002c0b833981810160405281019062000071919062000496565b8181818181600390805190602001906200008d9291906200035d565b508060049080519060200190620000a69291906200035d565b50505033600560006101000a81548173ffffffffffffffffffffffffffffffffffffffff021916908373ffffffffffffffffffffffffffffffffffffffff160217905550505060016006819055508260088190555060286008546200010c919062000605565b600981905550603c60095462000123919062000605565b600a819055506000601260006101000a81548160ff0219169083600381111562000176577f4e487b7100000000000000000000000000000000000000000000000000000000600052602160045260246000fd5b021790555033600760006101000a81548173ffffffffffffffffffffffffffffffffffffffff021916908373ffffffffffffffffffffffffffffffffffffffff160217905550620001d130620186a0620001da60201b60201c565b505050620007ef565b600073ffffffffffffffffffffffffffffffffffffffff168273ffffffffffffffffffffffffffffffffffffffff1614156200024d576040517f08c379a0000000000000000000000000000000000000000000000000000000008152600401620002449062000556565b60405180910390fd5b62000261600083836200035360201b60201c565b806002600082825462000275919062000605565b92505081905550806000808473ffffffffffffffffffffffffffffffffffffffff1673ffffffffffffffffffffffffffffffffffffffff1681526020019081526020016000206000828254620002cc919062000605565b925050819055508173ffffffffffffffffffffffffffffffffffffffff16600073ffffffffffffffffffffffffffffffffffffffff167fddf252ad1be2c89b69c2b068fc378daa952ba7f163c4a11628f55a4df523b3ef8360405162000333919062000578565b60405180910390a36200034f600083836200035860201b60201c565b5050565b505050565b505050565b8280546200036b90620006a2565b90600052602060002090601f0160209004810192826200038f5760008555620003db565b82601f10620003aa57805160ff1916838001178555620003db565b82800160010185558215620003db579182015b82811115620003da578251825591602001919060010190620003bd565b5b509050620003ea9190620003ee565b5090565b5b8082111562000409576000816000905550600101620003ef565b5090565b6000620004246200041e84620005be565b62000595565b9050828152602081018484840111156200043d57600080fd5b6200044a8482856200066c565b509392505050565b600082601f8301126200046457600080fd5b8151620004768482602086016200040d565b91505092915050565b6000815190506200049081620007d5565b92915050565b600080600060608486031215620004ac57600080fd5b6000620004bc868287016200047f565b935050602084015167ffffffffffffffff811115620004da57600080fd5b620004e88682870162000452565b925050604084015167ffffffffffffffff8111156200050657600080fd5b620005148682870162000452565b9150509250925092565b60006200052d601f83620005f4565b91506200053a82620007ac565b602082019050919050565b620005508162000662565b82525050565b6000602082019050818103600083015262000571816200051e565b9050919050565b60006020820190506200058f600083018462000545565b92915050565b6000620005a1620005b4565b9050620005af8282620006d8565b919050565b6000604051905090565b600067ffffffffffffffff821115620005dc57620005db6200076c565b5b620005e7826200079b565b9050602081019050919050565b600082825260208201905092915050565b6000620006128262000662565b91506200061f8362000662565b9250827fffffffffffffffffffffffffffffffffffffffffffffffffffffffffffffffff038211156200065757620006566200070e565b5b828201905092915050565b6000819050919050565b60005b838110156200068c5780820151818401526020810190506200066f565b838111156200069c576000848401525b50505050565b60006002820490506001821680620006bb57607f821691505b60208210811415620006d257620006d16200073d565b5b50919050565b620006e3826200079b565b810181811067ffffffffffffffff821117156200070557620007046200076c565b5b80604052505050565b7f4e487b7100000000000000000000000000000000000000000000000000000000600052601160045260246000fd5b7f4e487b7100000000000000000000000000000000000000000000000000000000600052602260045260246000fd5b7f4e487b7100000000000000000000000000000000000000000000000000000000600052604160045260246000fd5b6000601f19601f8301169050919050565b7f45524332303a206d696e7420746f20746865207a65726f206164647265737300600082015250565b620007e08162000662565b8114620007ec57600080fd5b50565b61240c80620007ff6000396000f3fe6080604052600436106101ba5760003560e01c80635ed7ca5b116100ec578063a9059cbb1161008a578063dd62ed3e11610064578063dd62ed3e14610618578063e8b5e51f14610655578063f851a44014610673578063fb86a4041461069e576101ca565b8063a9059cbb14610585578063c24a0f8b146105c2578063c59ee1dc146105ed576101ca565b80638ac2c680116100c65780638ac2c680146104c7578063906a26e0146104f257806395d89b411461051d578063a457c2d714610548576101ca565b80635ed7ca5b1461044857806370a082311461045f5780637ff9b5961461049c576101ca565b80632ee797c2116101595780633950935111610133578063395093511461038a57806344f38756146103c75780634d853ee5146103f2578063590e1ae31461041d576101ca565b80632ee797c214610309578063313ce56714610334578063378aa7011461035f576101ca565b8063095ea7b311610195578063095ea7b3146102395780630b97bc861461027657806318160ddd146102a157806323b872dd146102cc576101ca565b80622e1316146101cc578063046f7da2146101f757806306fdde031461020e576101ca565b366101ca576101c76106c9565b50005b005b3480156101d857600080fd5b506101e1610a2d565b6040516101ee9190611d9e565b60405180910390f35b34801561020357600080fd5b5061020c610a33565b005b34801561021a57600080fd5b50610223610ae0565b6040516102309190611bbc565b60405180910390f35b34801561024557600080fd5b50610260600480360381019061025b91906118c1565b610b72565b60405161026d9190611b86565b60405180910390f35b34801561028257600080fd5b5061028b610b95565b6040516102989190611d9e565b60405180910390f35b3480156102ad57600080fd5b506102b6610b9b565b6040516102c39190611d9e565b60405180910390f35b3480156102d857600080fd5b506102f360048036038101906102ee9190611872565b610ba5565b6040516103009190611b86565b60405180910390f35b34801561031557600080fd5b5061031e610bcc565b60405161032b9190611d9e565b60405180910390f35b34801561034057600080fd5b50610349610bd2565b6040516103569190611de2565b60405180910390f35b34801561036b57600080fd5b50610374610bdb565b6040516103819190611ba1565b60405180910390f35b34801561039657600080fd5b506103b160048036038101906103ac91906118c1565b610ca8565b6040516103be9190611b86565b60405180910390f35b3480156103d357600080fd5b506103dc610cdf565b6040516103e99190611ba1565b60405180910390f35b3480156103fe57600080fd5b50610407610cf2565b6040516104149190611b6b565b60405180910390f35b34801561042957600080fd5b50610432610d18565b60405161043f9190611b86565b60405180910390f35b34801561045457600080fd5b5061045d610fb3565b005b34801561046b57600080fd5b506104866004803603810190610481919061180d565b611060565b6040516104939190611d9e565b60405180910390f35b3480156104a857600080fd5b506104b16110a8565b6040516104be9190611d9e565b60405180910390f35b3480156104d357600080fd5b506104dc6110ae565b6040516104e99190611d9e565b60405180910390f35b3480156104fe57600080fd5b506105076110b4565b6040516105149190611d9e565b60405180910390f35b34801561052957600080fd5b506105326110ba565b60405161053f9190611bbc565b60405180910390f35b34801561055457600080fd5b5061056f600480360381019061056a91906118c1565b61114c565b60405161057c9190611b86565b60405180910390f35b34801561059157600080fd5b506105ac60048036038101906105a791906118c1565b6111c3565b6040516105b99190611b86565b60405180910390f35b3480156105ce57600080fd5b506105d76111e8565b6040516105e49190611d9e565b60405180910390f35b3480156105f957600080fd5b506106026111ee565b60405161060f9190611d9e565b60405180910390f35b34801561062457600080fd5b5061063f600480360381019061063a9190611836565b6111f4565b60405161064c9190611d9e565b60405180910390f35b61065d6106c9565b60405161066a9190611b86565b60405180910390f35b34801561067f57600080fd5b5061068861127b565b6040516106959190611b6b565b60405180910390f35b3480156106aa57600080fd5b506106b36112a1565b6040516106c09190611d9e565b60405180910390f35b600060026006541415610711576040517f08c379a000000000000000000000000000000000000000000000000000000000815260040161070890611d5e565b60405180910390fd5b6002600681905550610721610bdb565b601260006101000a81548160ff0219169083600381111561076b577f4e487b7100000000000000000000000000000000000000000000000000000000600052602160045260246000fd5b0217905550600160038111156107aa577f4e487b7100000000000000000000000000000000000000000000000000000000600052602160045260246000fd5b601260009054906101000a900460ff1660038111156107f2577f4e487b7100000000000000000000000000000000000000000000000000000000600052602160045260246000fd5b14610832576040517f08c379a000000000000000000000000000000000000000000000000000000000815260040161082990611cbe565b60405180910390fd5b600d543411610876576040517f08c379a000000000000000000000000000000000000000000000000000000000815260040161086d90611bde565b60405180910390fd5b34600b60003373ffffffffffffffffffffffffffffffffffffffff1673ffffffffffffffffffffffffffffffffffffffff16815260200190815260200160002060008282546108c59190611e19565b92505081905550600c54600b60003373ffffffffffffffffffffffffffffffffffffffff1673ffffffffffffffffffffffffffffffffffffffff168152602001908152602001600020541115610950576040517f08c379a000000000000000000000000000000000000000000000000000000000815260040161094790611d3e565b60405180910390fd5b34601160008282546109629190611e19565b92505081905550600f5460115411156109b0576040517f08c379a00000000000000000000000000000000000000000000000000000000081526004016109a790611c1e565b60405180910390fd5b6000600e54346109c09190611e6f565b90506109cd3033836112a7565b3373ffffffffffffffffffffffffffffffffffffffff167f4ae4bd7655e0d350876a23cd90c4227b13db560e34435c6a488150a9c844bf5f3483604051610a15929190611db9565b60405180910390a26001915050600160068190555090565b600c5481565b600760009054906101000a900473ffffffffffffffffffffffffffffffffffffffff1673ffffffffffffffffffffffffffffffffffffffff163373ffffffffffffffffffffffffffffffffffffffff1614610a8d57600080fd5b6001601260006101000a81548160ff02191690836003811115610ad9577f4e487b7100000000000000000000000000000000000000000000000000000000600052602160045260246000fd5b0217905550565b606060038054610aef90611f4d565b80601f0160208091040260200160405190810160405280929190818152602001828054610b1b90611f4d565b8015610b685780601f10610b3d57610100808354040283529160200191610b68565b820191906000526020600020905b815481529060010190602001808311610b4b57829003601f168201915b5050505050905090565b600080610b7d611528565b9050610b8a818585611530565b600191505092915050565b60085481565b6000600254905090565b6000600a544311610bb557600080fd5b610bc08484846116fb565b50600190509392505050565b600a5481565b60006012905090565b6000600380811115610c16577f4e487b7100000000000000000000000000000000000000000000000000000000600052602160045260246000fd5b601260009054906101000a900460ff166003811115610c5e577f4e487b7100000000000000000000000000000000000000000000000000000000600052602160045260246000fd5b1415610c6d5760039050610ca5565b600854431015610c805760009050610ca5565b60085443118015610c92575060095443105b15610ca05760019050610ca5565b600290505b90565b600080610cb3611528565b9050610cd4818585610cc585896111f4565b610ccf9190611e19565b611530565b600191505092915050565b601260009054906101000a900460ff1681565b600560009054906101000a900473ffffffffffffffffffffffffffffffffffffffff1681565b600060026006541415610d60576040517f08c379a0000000000000000000000000000000000000000000000000000000008152600401610d5790611d5e565b60405180910390fd5b60026006819055506000600b60003373ffffffffffffffffffffffffffffffffffffffff1673ffffffffffffffffffffffffffffffffffffffff168152602001908152602001600020549050610db4610bdb565b601260006101000a81548160ff02191690836003811115610dfe577f4e487b7100000000000000000000000000000000000000000000000000000000600052602160045260246000fd5b021790555060008111610e46576040517f08c379a0000000000000000000000000000000000000000000000000000000008152600401610e3d90611c9e565b60405180910390fd5b60026003811115610e80577f4e487b7100000000000000000000000000000000000000000000000000000000600052602160045260246000fd5b601260009054906101000a900460ff166003811115610ec8577f4e487b7100000000000000000000000000000000000000000000000000000000600052602160045260246000fd5b148015610ed85750601054601154105b610f17576040517f08c379a0000000000000000000000000000000000000000000000000000000008152600401610f0e90611d1e565b60405180910390fd5b6000600b60003373ffffffffffffffffffffffffffffffffffffffff1673ffffffffffffffffffffffffffffffffffffffff168152602001908152602001600020819055503373ffffffffffffffffffffffffffffffffffffffff166108fc829081150290604051600060405180830381858888f19350505050158015610fa2573d6000803e3d6000fd5b506001915050600160068190555090565b600760009054906101000a900473ffffffffffffffffffffffffffffffffffffffff1673ffffffffffffffffffffffffffffffffffffffff163373ffffffffffffffffffffffffffffffffffffffff161461100d57600080fd5b6003601260006101000a81548160ff02191690836003811115611059577f4e487b7100000000000000000000000000000000000000000000000000000000600052602160045260246000fd5b0217905550565b60008060008373ffffffffffffffffffffffffffffffffffffffff1673ffffffffffffffffffffffffffffffffffffffff168152602001908152602001600020549050919050565b600e5481565b600d5481565b60105481565b6060600480546110c990611f4d565b80601f01602080910402602001604051908101604052809291908181526020018280546110f590611f4d565b80156111425780601f1061111757610100808354040283529160200191611142565b820191906000526020600020905b81548152906001019060200180831161112557829003601f168201915b5050505050905090565b600080611157611528565b9050600061116582866111f4565b9050838110156111aa576040517f08c379a00000000000000000000000000000000000000000000000000000000081526004016111a190611d7e565b60405180910390fd5b6111b78286868403611530565b60019250505092915050565b6000600a5443116111d357600080fd5b6111dd838361172a565b506001905092915050565b60095481565b60115481565b6000600160008473ffffffffffffffffffffffffffffffffffffffff1673ffffffffffffffffffffffffffffffffffffffff16815260200190815260200160002060008373ffffffffffffffffffffffffffffffffffffffff1673ffffffffffffffffffffffffffffffffffffffff16815260200190815260200160002054905092915050565b600760009054906101000a900473ffffffffffffffffffffffffffffffffffffffff1681565b600f5481565b600073ffffffffffffffffffffffffffffffffffffffff168373ffffffffffffffffffffffffffffffffffffffff161415611317576040517f08c379a000000000000000000000000000000000000000000000000000000000815260040161130e90611cde565b60405180910390fd5b600073ffffffffffffffffffffffffffffffffffffffff168273ffffffffffffffffffffffffffffffffffffffff161415611387576040517f08c379a000000000000000000000000000000000000000000000000000000000815260040161137e90611bfe565b60405180910390fd5b61139283838361174d565b60008060008573ffffffffffffffffffffffffffffffffffffffff1673ffffffffffffffffffffffffffffffffffffffff16815260200190815260200160002054905081811015611418576040517f08c379a000000000000000000000000000000000000000000000000000000000815260040161140f90611c7e565b60405180910390fd5b8181036000808673ffffffffffffffffffffffffffffffffffffffff1673ffffffffffffffffffffffffffffffffffffffff16815260200190815260200160002081905550816000808573ffffffffffffffffffffffffffffffffffffffff1673ffffffffffffffffffffffffffffffffffffffff16815260200190815260200160002060008282546114ab9190611e19565b925050819055508273ffffffffffffffffffffffffffffffffffffffff168473ffffffffffffffffffffffffffffffffffffffff167fddf252ad1be2c89b69c2b068fc378daa952ba7f163c4a11628f55a4df523b3ef8460405161150f9190611d9e565b60405180910390a3611522848484611752565b50505050565b600033905090565b600073ffffffffffffffffffffffffffffffffffffffff168373ffffffffffffffffffffffffffffffffffffffff1614156115a0576040517f08c379a000000000000000000000000000000000000000000000000000000000815260040161159790611cfe565b60405180910390fd5b600073ffffffffffffffffffffffffffffffffffffffff168273ffffffffffffffffffffffffffffffffffffffff161415611610576040517f08c379a000000000000000000000000000000000000000000000000000000000815260040161160790611c3e565b60405180910390fd5b80600160008573ffffffffffffffffffffffffffffffffffffffff1673ffffffffffffffffffffffffffffffffffffffff16815260200190815260200160002060008473ffffffffffffffffffffffffffffffffffffffff1673ffffffffffffffffffffffffffffffffffffffff168152602001908152602001600020819055508173ffffffffffffffffffffffffffffffffffffffff168373ffffffffffffffffffffffffffffffffffffffff167f8c5be1e5ebec7d5bd14f71427d1e84f3dd0314c0f7b2291e5b200ac8c7c3b925836040516116ee9190611d9e565b60405180910390a3505050565b600080611706611528565b9050611713858285611757565b61171e8585856112a7565b60019150509392505050565b600080611735611528565b90506117428185856112a7565b600191505092915050565b505050565b505050565b600061176384846111f4565b90507fffffffffffffffffffffffffffffffffffffffffffffffffffffffffffffffff81146117dd57818110156117cf576040517f08c379a00000000000000000000000000000000000000000000000000000000081526004016117c690611c5e565b60405180910390fd5b6117dc8484848403611530565b5b50505050565b6000813590506117f2816123a8565b92915050565b600081359050611807816123bf565b92915050565b60006020828403121561181f57600080fd5b600061182d848285016117e3565b91505092915050565b6000806040838503121561184957600080fd5b6000611857858286016117e3565b9250506020611868858286016117e3565b9150509250929050565b60008060006060848603121561188757600080fd5b6000611895868287016117e3565b93505060206118a6868287016117e3565b92505060406118b7868287016117f8565b9150509250925092565b600080604083850312156118d457600080fd5b60006118e2858286016117e3565b92505060206118f3858286016117f8565b9150509250929050565b61190681611ea0565b82525050565b61191581611eb2565b82525050565b61192481611f08565b82525050565b600061193582611dfd565b61193f8185611e08565b935061194f818560208601611f1a565b6119588161203b565b840191505092915050565b6000611970601d83611e08565b915061197b8261204c565b602082019050919050565b6000611993602383611e08565b915061199e82612075565b604082019050919050565b60006119b6601e83611e08565b91506119c1826120c4565b602082019050919050565b60006119d9602283611e08565b91506119e4826120ed565b604082019050919050565b60006119fc601d83611e08565b9150611a078261213c565b602082019050919050565b6000611a1f602683611e08565b9150611a2a82612165565b604082019050919050565b6000611a42601283611e08565b9150611a4d826121b4565b602082019050919050565b6000611a65601283611e08565b9150611a70826121dd565b602082019050919050565b6000611a88602583611e08565b9150611a9382612206565b604082019050919050565b6000611aab602483611e08565b9150611ab682612255565b604082019050919050565b6000611ace601283611e08565b9150611ad9826122a4565b602082019050919050565b6000611af1602f83611e08565b9150611afc826122cd565b604082019050919050565b6000611b14601f83611e08565b9150611b1f8261231c565b602082019050919050565b6000611b37602583611e08565b9150611b4282612345565b604082019050919050565b611b5681611ef1565b82525050565b611b6581611efb565b82525050565b6000602082019050611b8060008301846118fd565b92915050565b6000602082019050611b9b600083018461190c565b92915050565b6000602082019050611bb6600083018461191b565b92915050565b60006020820190508181036000830152611bd6818461192a565b905092915050565b60006020820190508181036000830152611bf781611963565b9050919050565b60006020820190508181036000830152611c1781611986565b9050919050565b60006020820190508181036000830152611c37816119a9565b9050919050565b60006020820190508181036000830152611c57816119cc565b9050919050565b60006020820190508181036000830152611c77816119ef565b9050919050565b60006020820190508181036000830152611c9781611a12565b9050919050565b60006020820190508181036000830152611cb781611a35565b9050919050565b60006020820190508181036000830152611cd781611a58565b9050919050565b60006020820190508181036000830152611cf781611a7b565b9050919050565b60006020820190508181036000830152611d1781611a9e565b9050919050565b60006020820190508181036000830152611d3781611ac1565b9050919050565b60006020820190508181036000830152611d5781611ae4565b9050919050565b60006020820190508181036000830152611d7781611b07565b9050919050565b60006020820190508181036000830152611d9781611b2a565b9050919050565b6000602082019050611db36000830184611b4d565b92915050565b6000604082019050611dce6000830185611b4d565b611ddb6020830184611b4d565b9392505050565b6000602082019050611df76000830184611b5c565b92915050565b600081519050919050565b600082825260208201905092915050565b6000611e2482611ef1565b9150611e2f83611ef1565b9250827fffffffffffffffffffffffffffffffffffffffffffffffffffffffffffffffff03821115611e6457611e63611f7f565b5b828201905092915050565b6000611e7a82611ef1565b9150611e8583611ef1565b925082611e9557611e94611fae565b5b828204905092915050565b6000611eab82611ed1565b9050919050565b60008115159050919050565b6000819050611ecc82612394565b919050565b600073ffffffffffffffffffffffffffffffffffffffff82169050919050565b6000819050919050565b600060ff82169050919050565b6000611f1382611ebe565b9050919050565b60005b83811015611f38578082015181840152602081019050611f1d565b83811115611f47576000848401525b50505050565b60006002820490506001821680611f6557607f821691505b60208210811415611f7957611f7861200c565b5b50919050565b7f4e487b7100000000000000000000000000000000000000000000000000000000600052601160045260246000fd5b7f4e487b7100000000000000000000000000000000000000000000000000000000600052601260045260246000fd5b7f4e487b7100000000000000000000000000000000000000000000000000000000600052602160045260246000fd5b7f4e487b7100000000000000000000000000000000000000000000000000000000600052602260045260246000fd5b6000601f19601f8301169050919050565b7f596f75206861766520746f20696e76657374206d6f7265206574686572000000600082015250565b7f45524332303a207472616e7366657220746f20746865207a65726f206164647260008201527f6573730000000000000000000000000000000000000000000000000000000000602082015250565b7f49636f2072616973656420616d6f756e74207761732065786365656465640000600082015250565b7f45524332303a20617070726f766520746f20746865207a65726f20616464726560008201527f7373000000000000000000000000000000000000000000000000000000000000602082015250565b7f45524332303a20696e73756666696369656e7420616c6c6f77616e6365000000600082015250565b7f45524332303a207472616e7366657220616d6f756e742065786365656473206260008201527f616c616e63650000000000000000000000000000000000000000000000000000602082015250565b7f4e6f7468696e6720746f20726566756e642e0000000000000000000000000000600082015250565b7f49434f206973206e6f742072756e6e696e670000000000000000000000000000600082015250565b7f45524332303a207472616e736665722066726f6d20746865207a65726f20616460008201527f6472657373000000000000000000000000000000000000000000000000000000602082015250565b7f45524332303a20617070726f76652066726f6d20746865207a65726f2061646460008201527f7265737300000000000000000000000000000000000000000000000000000000602082015250565b7f436f6e646974696f6e73206e6f74206d65740000000000000000000000000000600082015250565b7f596f75206861766520657863656564656420746865206d617820696e7665737460008201527f6d656e74207065722077616c6c65740000000000000000000000000000000000602082015250565b7f5265656e7472616e637947756172643a207265656e7472616e742063616c6c00600082015250565b7f45524332303a2064656372656173656420616c6c6f77616e63652062656c6f7760008201527f207a65726f000000000000000000000000000000000000000000000000000000602082015250565b600481106123a5576123a4611fdd565b5b50565b6123b181611ea0565b81146123bc57600080fd5b50565b6123c881611ef1565b81146123d357600080fd5b5056fea26469706673582212206f49f149d9051deb6e6231e0c4f8254029e3ae40cd322d6b3b0e7a5c3d0704ae64736f6c63430008020033",
  "linkReferences": {},
  "deployedLinkReferences": {}
}